{
  "contractName": "logBook",
  "abi": [
    {
      "constant": true,
      "inputs": [],
      "name": "recordCnt",
      "outputs": [
        {
          "name": "",
          "type": "uint256"
        }
      ],
      "payable": false,
      "stateMutability": "view",
      "type": "function"
    },
    {
      "constant": true,
      "inputs": [
        {
          "name": "",
          "type": "uint256"
        }
      ],
      "name": "Record",
      "outputs": [
        {
          "name": "vin",
          "type": "uint256"
        },
        {
          "name": "serv_message",
          "type": "string"
        },
        {
          "name": "date",
          "type": "uint256"
        }
      ],
      "payable": false,
      "stateMutability": "view",
      "type": "function"
    },
    {
      "inputs": [],
      "payable": false,
      "stateMutability": "nonpayable",
      "type": "constructor"
    },
    {
      "constant": false,
      "inputs": [
        {
          "name": "vehicle_id",
          "type": "uint256"
        },
        {
          "name": "message",
          "type": "string"
        },
        {
          "name": "date",
          "type": "uint256"
        }
      ],
      "name": "addService",
      "outputs": [],
      "payable": false,
      "stateMutability": "nonpayable",
      "type": "function"
    },
    {
      "constant": false,
      "inputs": [
        {
          "name": "recordID",
          "type": "uint256"
        }
      ],
      "name": "seeService",
      "outputs": [
        {
          "name": "exists",
          "type": "bool"
        },
        {
          "name": "vehicle_id",
          "type": "uint256"
        },
        {
          "name": "message",
          "type": "string"
        },
        {
          "name": "date",
          "type": "uint256"
        }
      ],
      "payable": false,
      "stateMutability": "nonpayable",
      "type": "function"
    }
  ],
  "bytecode": "0x608060405234801561001057600080fd5b5060006001819055506105f1806100286000396000f3fe608060405234801561001057600080fd5b506004361061004c5760003560e01c80633b289b8f1461005157806345f0c5bc1461006f578063939a00a114610124578063be57bc92146101e4575b600080fd5b6100596102b3565b6040518082815260200191505060405180910390f35b61009b6004803603602081101561008557600080fd5b81019080803590602001909291905050506102b9565b6040518084815260200180602001838152602001828103825284818151815260200191508051906020019080838360005b838110156100e75780820151818401526020810190506100cc565b50505050905090810190601f1680156101145780820380516001836020036101000a031916815260200191505b5094505050505060405180910390f35b6101506004803603602081101561013a57600080fd5b810190808035906020019092919050505061037b565b604051808515151515815260200184815260200180602001838152602001828103825284818151815260200191508051906020019080838360005b838110156101a657808201518184015260208101905061018b565b50505050905090810190601f1680156101d35780820380516001836020036101000a031916815260200191505b509550505050505060405180910390f35b6102b1600480360360608110156101fa57600080fd5b81019080803590602001909291908035906020019064010000000081111561022157600080fd5b82018360208201111561023357600080fd5b8035906020019184600183028401116401000000008311171561025557600080fd5b91908080601f016020809104026020016040519081016040528093929190818152602001838380828437600081840152601f19601f820116905080830192505050505050509192919290803590602001909291905050506104a6565b005b60015481565b6000602052806000526040600020600091509050806000015490806001018054600181600116156101000203166002900480601f01602080910402602001604051908101604052809291908181526020018280546001816001161561010002031660029004801561036b5780601f106103405761010080835404028352916020019161036b565b820191906000526020600020905b81548152906001019060200180831161034e57829003601f168201915b5050505050908060020154905083565b60008060606000809250600090506040518060200160405280600081525091506000935084600154116104935760019350600080600154815260200190815260200160002060000154925060008060015481526020019081526020016000206001018054600181600116156101000203166002900480601f0160208091040260200160405190810160405280929190818152602001828054600181600116156101000203166002900480156104715780601f1061044657610100808354040283529160200191610471565b820191906000526020600020905b81548152906001019060200180831161045457829003601f168201915b5050505050915060008060015481526020019081526020016000206002015490505b8383838393509350935093509193509193565b600160008154809291906001019190505550604051806060016040528084815260200183815260200182815250600080600154815260200190815260200160002060008201518160000155602082015181600101908051906020019061050d929190610520565b5060408201518160020155905050505050565b828054600181600116156101000203166002900490600052602060002090601f016020900481019282601f1061056157805160ff191683800117855561058f565b8280016001018555821561058f579182015b8281111561058e578251825591602001919060010190610573565b5b50905061059c91906105a0565b5090565b6105c291905b808211156105be5760008160009055506001016105a6565b5090565b9056fea165627a7a72305820b03e42da402b945c0be62e1c73a5ba1c73d8a1ac5a13d16cb70784272a56637e0029",
  "source": "pragma solidity ^0.5.0;\r\n\r\ncontract logBook\r\n{\r\n    struct Service\r\n    {\r\n        uint vin;\r\n        string serv_message;\r\n        uint date;\r\n    }\r\n    mapping(uint => Service) public Record;\r\n    uint public recordCnt;\r\n    constructor() public\r\n    {\r\n        recordCnt = 0;\r\n    }\r\n    function addService(uint vehicle_id,string memory message,uint date) public\r\n    {\r\n        recordCnt++;\r\n        Record[recordCnt] = Service({vin: vehicle_id,serv_message: message,date: date});\r\n    }\r\n    function seeService(uint recordID) public returns(bool exists,uint vehicle_id,string memory message,uint date)\r\n    {\r\n        vehicle_id = 0;\r\n        date = 0;\r\n        message = \"\";\r\n        exists = false;\r\n        if(recordCnt <= recordID)\r\n        {\r\n            exists = true;\r\n            vehicle_id = Record[recordCnt].vin;\r\n            message = Record[recordCnt].serv_message;\r\n            date = Record[recordCnt].date;\r\n        }\r\n        return (exists,vehicle_id,message,date);\r\n    }\r\n} ",
  "sourcePath": "C:/Users/Hardik/Desktop/LogBook/contracts/logBook.sol",
  "compiler": {
    "name": "solc",
    "version": "0.5.8+commit.23d335f2.Emscripten.clang"
  },
  "schemaVersion": "3.0.14",
  "updatedAt": "2019-09-02T14:28:15.786Z",
  "devdoc": {
    "methods": {}
  },
  "userdoc": {
    "methods": {}
  }
}